{
  "contractName": "Election",
  "abi": [
    {
      "inputs": [],
      "payable": false,
      "stateMutability": "nonpayable",
      "type": "constructor"
    },
    {
      "constant": true,
      "inputs": [
        {
          "internalType": "uint256",
          "name": "",
          "type": "uint256"
        }
      ],
      "name": "candidates",
      "outputs": [
        {
          "internalType": "uint256",
          "name": "id",
          "type": "uint256"
        },
        {
          "internalType": "string",
          "name": "name",
          "type": "string"
        },
        {
          "internalType": "uint256",
          "name": "votecount",
          "type": "uint256"
        }
      ],
      "payable": false,
      "stateMutability": "view",
      "type": "function"
    },
    {
      "constant": true,
      "inputs": [],
      "name": "totalcandidates",
      "outputs": [
        {
          "internalType": "uint256",
          "name": "",
          "type": "uint256"
        }
      ],
      "payable": false,
      "stateMutability": "view",
      "type": "function"
    }
  ],
  "bytecode": "0x608060405234801561001057600080fd5b5060408051808201909152600b81526a43616e646964617465203160a81b6020820152610045906001600160e01b0361007e16565b60408051808201909152600b81526a21b0b73234b230ba32901960a91b6020820152610079906001600160e01b0361007e16565b610175565b6001805481018082556040805160608101825282815260208082018681526000838501819052948552848252929093208151815591518051919492936100c9938501929101906100da565b506040820151816002015590505050565b828054600181600116156101000203166002900490600052602060002090601f016020900481019282601f1061011b57805160ff1916838001178555610148565b82800160010185558215610148579182015b8281111561014857825182559160200191906001019061012d565b50610154929150610158565b5090565b61017291905b80821115610154576000815560010161015e565b90565b6101dd806101846000396000f3fe608060405234801561001057600080fd5b50600436106100365760003560e01c80633477ee2e1461003b57806367529652146100de575b600080fd5b6100586004803603602081101561005157600080fd5b50356100f8565b6040518084815260200180602001838152602001828103825284818151815260200191508051906020019080838360005b838110156100a1578181015183820152602001610089565b50505050905090810190601f1680156100ce5780820380516001836020036101000a031916815260200191505b5094505050505060405180910390f35b6100e66101a2565b60408051918252519081900360200190f35b600060208181529181526040908190208054600180830180548551600293821615610100026000190190911692909204601f81018790048702830187019095528482529194929390928301828280156101925780601f1061016757610100808354040283529160200191610192565b820191906000526020600020905b81548152906001019060200180831161017557829003601f168201915b5050505050908060020154905083565b6001548156fea265627a7a72315820e11124489bb62feacaf2a1a45de3044877742df8598f3567f8eb5a285e1c744764736f6c63430005100032",
  "source": "//SPDX-License-Identifier: MIT\r\npragma solidity >=0.4.22;\r\n\r\ncontract Election {\r\n    struct Candidate {\r\n        uint id;\r\n        string name;\r\n        uint votecount;\r\n    }\r\n  mapping(uint => Candidate) public candidates;  \r\n    uint public totalcandidates;\r\n    constructor() public{\r\n        addCandidate(\"Candidate 1\");\r\n        addCandidate(\"Candidate 2\");\r\n    }\r\n    function addCandidate (string memory _name) private {\r\n        totalcandidates++;\r\n        candidates[totalcandidates] = Candidate(totalcandidates, _name,0);\r\n    }\r\n}",
  "sourcePath": "C:/Users/KEERTHANA S/Documents/voting-app/contracts/Election.sol",
  "compiler": {
    "name": "solc",
    "version": "0.5.16+commit.9c3226ce.Emscripten.clang"
  },
  "schemaVersion": "3.3.4",
  "updatedAt": "2021-04-07T20:45:08.541Z",
  "networkType": "ethereum",
  "devdoc": {
    "methods": {}
  },
  "userdoc": {
    "methods": {}
  }
}